:0F0868001208921208567FE87E0312083280F4BD
:07089200D2A0C2A3C2A12203
:02080000A90746
:10080200E4FFFEFDFCE930E704D2A38002C2A3D2DA
:10081200A1E925E0F9EF25E0FFEE33FE30A2034324
:0F0822000701C2A10DBD00010CED64084C70D69A
:0108310022A4
:0E087700C2A07FD0120800E4FF120800D2A039
:010885002250
:10085600120877C3EF946EE494005003D2A722C225
:01086600A7EA
:01086700226E
:10083200E4FDFCC3ED9FEC9E5019758901758CFC9B
:10084200758A67D28C308DFDC28CC28D0DBD0001C0
:030852000C80E037
:010855002280
:030000000208866D
:0C088600787FE4F6D8FD75810702086851
:00000001FF
